{
  "_format": "hh-sol-artifact-1",
  "contractName": "WeirdosCloning",
  "sourceName": "contracts/WeirdosCloning.sol",
  "abi": [
    {
      "inputs": [
        {
          "internalType": "string",
          "name": "_baseURI",
          "type": "string"
        },
        {
          "internalType": "contract IERC20",
          "name": "_apeTokenAddress",
          "type": "address"
        }
      ],
      "stateMutability": "nonpayable",
      "type": "constructor"
    },
    {
      "inputs": [],
      "name": "ApprovalCallerNotOwnerNorApproved",
      "type": "error"
    },
    {
      "inputs": [],
      "name": "ApprovalQueryForNonexistentToken",
      "type": "error"
    },
    {
      "inputs": [],
      "name": "ApprovalToCurrentOwner",
      "type": "error"
    },
    {
      "inputs": [],
      "name": "ApproveToCaller",
      "type": "error"
    },
    {
      "inputs": [],
      "name": "BalanceQueryForZeroAddress",
      "type": "error"
    },
    {
      "inputs": [],
      "name": "MintToZeroAddress",
      "type": "error"
    },
    {
      "inputs": [],
      "name": "MintZeroQuantity",
      "type": "error"
    },
    {
      "inputs": [],
      "name": "OwnerQueryForNonexistentToken",
      "type": "error"
    },
    {
      "inputs": [],
      "name": "TransferCallerNotOwnerNorApproved",
      "type": "error"
    },
    {
      "inputs": [],
      "name": "TransferFromIncorrectOwner",
      "type": "error"
    },
    {
      "inputs": [],
      "name": "TransferToNonERC721ReceiverImplementer",
      "type": "error"
    },
    {
      "inputs": [],
      "name": "TransferToZeroAddress",
      "type": "error"
    },
    {
      "anonymous": false,
      "inputs": [
        {
          "indexed": true,
          "internalType": "address",
          "name": "owner",
          "type": "address"
        },
        {
          "indexed": true,
          "internalType": "address",
          "name": "approved",
          "type": "address"
        },
        {
          "indexed": true,
          "internalType": "uint256",
          "name": "tokenId",
          "type": "uint256"
        }
      ],
      "name": "Approval",
      "type": "event"
    },
    {
      "anonymous": false,
      "inputs": [
        {
          "indexed": true,
          "internalType": "address",
          "name": "owner",
          "type": "address"
        },
        {
          "indexed": true,
          "internalType": "address",
          "name": "operator",
          "type": "address"
        },
        {
          "indexed": false,
          "internalType": "bool",
          "name": "approved",
          "type": "bool"
        }
      ],
      "name": "ApprovalForAll",
      "type": "event"
    },
    {
      "anonymous": false,
      "inputs": [
        {
          "indexed": true,
          "internalType": "address",
          "name": "previousOwner",
          "type": "address"
        },
        {
          "indexed": true,
          "internalType": "address",
          "name": "newOwner",
          "type": "address"
        }
      ],
      "name": "OwnershipTransferred",
      "type": "event"
    },
    {
      "anonymous": false,
      "inputs": [
        {
          "indexed": true,
          "internalType": "address",
          "name": "from",
          "type": "address"
        },
        {
          "indexed": true,
          "internalType": "address",
          "name": "to",
          "type": "address"
        },
        {
          "indexed": true,
          "internalType": "uint256",
          "name": "tokenId",
          "type": "uint256"
        }
      ],
      "name": "Transfer",
      "type": "event"
    },
    {
      "inputs": [],
      "name": "MAX_SUPPLY",
      "outputs": [
        {
          "internalType": "uint256",
          "name": "",
          "type": "uint256"
        }
      ],
      "stateMutability": "view",
      "type": "function"
    },
    {
      "inputs": [],
      "name": "apeTokenAddress",
      "outputs": [
        {
          "internalType": "contract IERC20",
          "name": "",
          "type": "address"
        }
      ],
      "stateMutability": "view",
      "type": "function"
    },
    {
      "inputs": [
        {
          "internalType": "address",
          "name": "to",
          "type": "address"
        },
        {
          "internalType": "uint256",
          "name": "tokenId",
          "type": "uint256"
        }
      ],
      "name": "approve",
      "outputs": [],
      "stateMutability": "nonpayable",
      "type": "function"
    },
    {
      "inputs": [
        {
          "internalType": "address",
          "name": "owner",
          "type": "address"
        }
      ],
      "name": "balanceOf",
      "outputs": [
        {
          "internalType": "uint256",
          "name": "",
          "type": "uint256"
        }
      ],
      "stateMutability": "view",
      "type": "function"
    },
    {
      "inputs": [],
      "name": "bankAddress",
      "outputs": [
        {
          "internalType": "address",
          "name": "",
          "type": "address"
        }
      ],
      "stateMutability": "view",
      "type": "function"
    },
    {
      "inputs": [],
      "name": "baseURI",
      "outputs": [
        {
          "internalType": "string",
          "name": "",
          "type": "string"
        }
      ],
      "stateMutability": "view",
      "type": "function"
    },
    {
      "inputs": [],
      "name": "claimActive",
      "outputs": [
        {
          "internalType": "bool",
          "name": "",
          "type": "bool"
        }
      ],
      "stateMutability": "view",
      "type": "function"
    },
    {
      "inputs": [
        {
          "internalType": "address",
          "name": "",
          "type": "address"
        }
      ],
      "name": "claimAddressToMinted",
      "outputs": [
        {
          "internalType": "uint256",
          "name": "",
          "type": "uint256"
        }
      ],
      "stateMutability": "view",
      "type": "function"
    },
    {
      "inputs": [],
      "name": "claimMerkleRoot",
      "outputs": [
        {
          "internalType": "bytes32",
          "name": "",
          "type": "bytes32"
        }
      ],
      "stateMutability": "view",
      "type": "function"
    },
    {
      "inputs": [
        {
          "internalType": "uint256",
          "name": "count",
          "type": "uint256"
        },
        {
          "internalType": "uint256",
          "name": "allowance",
          "type": "uint256"
        },
        {
          "internalType": "bytes32[]",
          "name": "proof",
          "type": "bytes32[]"
        }
      ],
      "name": "claimMint",
      "outputs": [],
      "stateMutability": "nonpayable",
      "type": "function"
    },
    {
      "inputs": [],
      "name": "contractURI",
      "outputs": [
        {
          "internalType": "string",
          "name": "",
          "type": "string"
        }
      ],
      "stateMutability": "view",
      "type": "function"
    },
    {
      "inputs": [
        {
          "internalType": "address",
          "name": "",
          "type": "address"
        }
      ],
      "name": "creamAddressToMinted",
      "outputs": [
        {
          "internalType": "uint256",
          "name": "",
          "type": "uint256"
        }
      ],
      "stateMutability": "view",
      "type": "function"
    },
    {
      "inputs": [
        {
          "internalType": "uint256",
          "name": "count",
          "type": "uint256"
        },
        {
          "internalType": "uint256",
          "name": "allowance",
          "type": "uint256"
        },
        {
          "internalType": "bytes32[]",
          "name": "proof",
          "type": "bytes32[]"
        }
      ],
      "name": "creamMintAPE",
      "outputs": [],
      "stateMutability": "nonpayable",
      "type": "function"
    },
    {
      "inputs": [
        {
          "internalType": "uint256",
          "name": "count",
          "type": "uint256"
        },
        {
          "internalType": "uint256",
          "name": "allowance",
          "type": "uint256"
        },
        {
          "internalType": "bytes32[]",
          "name": "proof",
          "type": "bytes32[]"
        }
      ],
      "name": "creamMintETH",
      "outputs": [],
      "stateMutability": "payable",
      "type": "function"
    },
    {
      "inputs": [],
      "name": "creamlistActive",
      "outputs": [
        {
          "internalType": "bool",
          "name": "",
          "type": "bool"
        }
      ],
      "stateMutability": "view",
      "type": "function"
    },
    {
      "inputs": [],
      "name": "creamlistMerkleRoot",
      "outputs": [
        {
          "internalType": "bytes32",
          "name": "",
          "type": "bytes32"
        }
      ],
      "stateMutability": "view",
      "type": "function"
    },
    {
      "inputs": [
        {
          "internalType": "uint256",
          "name": "tokenId",
          "type": "uint256"
        }
      ],
      "name": "getApproved",
      "outputs": [
        {
          "internalType": "address",
          "name": "",
          "type": "address"
        }
      ],
      "stateMutability": "view",
      "type": "function"
    },
    {
      "inputs": [],
      "name": "getContractURI",
      "outputs": [
        {
          "internalType": "string",
          "name": "",
          "type": "string"
        }
      ],
      "stateMutability": "view",
      "type": "function"
    },
    {
      "inputs": [
        {
          "internalType": "address",
          "name": "owner",
          "type": "address"
        },
        {
          "internalType": "address",
          "name": "operator",
          "type": "address"
        }
      ],
      "name": "isApprovedForAll",
      "outputs": [
        {
          "internalType": "bool",
          "name": "",
          "type": "bool"
        }
      ],
      "stateMutability": "view",
      "type": "function"
    },
    {
      "inputs": [],
      "name": "mintPriceApe",
      "outputs": [
        {
          "internalType": "uint256",
          "name": "",
          "type": "uint256"
        }
      ],
      "stateMutability": "view",
      "type": "function"
    },
    {
      "inputs": [],
      "name": "mintPriceEth",
      "outputs": [
        {
          "internalType": "uint256",
          "name": "",
          "type": "uint256"
        }
      ],
      "stateMutability": "view",
      "type": "function"
    },
    {
      "inputs": [
        {
          "internalType": "int8",
          "name": "_num",
          "type": "int8"
        }
      ],
      "name": "myFunction",
      "outputs": [],
      "stateMutability": "nonpayable",
      "type": "function"
    },
    {
      "inputs": [],
      "name": "name",
      "outputs": [
        {
          "internalType": "string",
          "name": "",
          "type": "string"
        }
      ],
      "stateMutability": "view",
      "type": "function"
    },
    {
      "inputs": [],
      "name": "owner",
      "outputs": [
        {
          "internalType": "address",
          "name": "",
          "type": "address"
        }
      ],
      "stateMutability": "view",
      "type": "function"
    },
    {
      "inputs": [
        {
          "internalType": "uint256",
          "name": "tokenId",
          "type": "uint256"
        }
      ],
      "name": "ownerOf",
      "outputs": [
        {
          "internalType": "address",
          "name": "",
          "type": "address"
        }
      ],
      "stateMutability": "view",
      "type": "function"
    },
    {
      "inputs": [],
      "name": "publicActive",
      "outputs": [
        {
          "internalType": "bool",
          "name": "",
          "type": "bool"
        }
      ],
      "stateMutability": "view",
      "type": "function"
    },
    {
      "inputs": [],
      "name": "publicMerkleRoot",
      "outputs": [
        {
          "internalType": "bytes32",
          "name": "",
          "type": "bytes32"
        }
      ],
      "stateMutability": "view",
      "type": "function"
    },
    {
      "inputs": [
        {
          "internalType": "uint256",
          "name": "count",
          "type": "uint256"
        },
        {
          "internalType": "bytes32[]",
          "name": "proof",
          "type": "bytes32[]"
        },
        {
          "internalType": "string",
          "name": "antiBotPhrase",
          "type": "string"
        },
        {
          "internalType": "uint256",
          "name": "antiBotPhraseAllowance",
          "type": "uint256"
        }
      ],
      "name": "publicMintApe",
      "outputs": [],
      "stateMutability": "nonpayable",
      "type": "function"
    },
    {
      "inputs": [
        {
          "internalType": "uint256",
          "name": "count",
          "type": "uint256"
        },
        {
          "internalType": "bytes32[]",
          "name": "proof",
          "type": "bytes32[]"
        },
        {
          "internalType": "string",
          "name": "antiBotPhrase",
          "type": "string"
        },
        {
          "internalType": "uint256",
          "name": "antiBotPhraseAllowance",
          "type": "uint256"
        }
      ],
      "name": "publicMintEth",
      "outputs": [],
      "stateMutability": "payable",
      "type": "function"
    },
    {
      "inputs": [],
      "name": "renounceOwnership",
      "outputs": [],
      "stateMutability": "nonpayable",
      "type": "function"
    },
    {
      "inputs": [
        {
          "internalType": "address",
          "name": "from",
          "type": "address"
        },
        {
          "internalType": "address",
          "name": "to",
          "type": "address"
        },
        {
          "internalType": "uint256",
          "name": "tokenId",
          "type": "uint256"
        }
      ],
      "name": "safeTransferFrom",
      "outputs": [],
      "stateMutability": "nonpayable",
      "type": "function"
    },
    {
      "inputs": [
        {
          "internalType": "address",
          "name": "from",
          "type": "address"
        },
        {
          "internalType": "address",
          "name": "to",
          "type": "address"
        },
        {
          "internalType": "uint256",
          "name": "tokenId",
          "type": "uint256"
        },
        {
          "internalType": "bytes",
          "name": "_data",
          "type": "bytes"
        }
      ],
      "name": "safeTransferFrom",
      "outputs": [],
      "stateMutability": "nonpayable",
      "type": "function"
    },
    {
      "inputs": [
        {
          "internalType": "address",
          "name": "operator",
          "type": "address"
        },
        {
          "internalType": "bool",
          "name": "approved",
          "type": "bool"
        }
      ],
      "name": "setApprovalForAll",
      "outputs": [],
      "stateMutability": "nonpayable",
      "type": "function"
    },
    {
      "inputs": [
        {
          "internalType": "address",
          "name": "_bankAddress",
          "type": "address"
        }
      ],
      "name": "setBankAddress",
      "outputs": [],
      "stateMutability": "nonpayable",
      "type": "function"
    },
    {
      "inputs": [
        {
          "internalType": "string",
          "name": "_baseURI",
          "type": "string"
        }
      ],
      "name": "setBaseURI",
      "outputs": [],
      "stateMutability": "nonpayable",
      "type": "function"
    },
    {
      "inputs": [
        {
          "internalType": "bool",
          "name": "_state",
          "type": "bool"
        }
      ],
      "name": "setClaim",
      "outputs": [],
      "stateMutability": "nonpayable",
      "type": "function"
    },
    {
      "inputs": [
        {
          "internalType": "bool",
          "name": "_state",
          "type": "bool"
        }
      ],
      "name": "setCreamlist",
      "outputs": [],
      "stateMutability": "nonpayable",
      "type": "function"
    },
    {
      "inputs": [
        {
          "internalType": "bytes32",
          "name": "_creamlistMerkleRoot",
          "type": "bytes32"
        }
      ],
      "name": "setCreamlistMerkleRoot",
      "outputs": [],
      "stateMutability": "nonpayable",
      "type": "function"
    },
    {
      "inputs": [
        {
          "internalType": "bytes32",
          "name": "_claimMerkleRoot",
          "type": "bytes32"
        }
      ],
      "name": "setFreeClaimlistMerkleRoot",
      "outputs": [],
      "stateMutability": "nonpayable",
      "type": "function"
    },
    {
      "inputs": [
        {
          "internalType": "bool",
          "name": "_state",
          "type": "bool"
        }
      ],
      "name": "setPublic",
      "outputs": [],
      "stateMutability": "nonpayable",
      "type": "function"
    },
    {
      "inputs": [
        {
          "internalType": "bytes32",
          "name": "_publicMerkleRoot",
          "type": "bytes32"
        }
      ],
      "name": "setPublicSalelistMerkleRoot",
      "outputs": [],
      "stateMutability": "nonpayable",
      "type": "function"
    },
    {
      "inputs": [
        {
          "internalType": "uint256",
          "name": "_mintPriceApe",
          "type": "uint256"
        }
      ],
      "name": "setTokenApePrice",
      "outputs": [],
      "stateMutability": "nonpayable",
      "type": "function"
    },
    {
      "inputs": [
        {
          "internalType": "uint256",
          "name": "_mintPriceEth",
          "type": "uint256"
        }
      ],
      "name": "setTokenEthPrice",
      "outputs": [],
      "stateMutability": "nonpayable",
      "type": "function"
    },
    {
      "inputs": [
        {
          "internalType": "string",
          "name": "_contractURI",
          "type": "string"
        }
      ],
      "name": "setcontractURI",
      "outputs": [],
      "stateMutability": "nonpayable",
      "type": "function"
    },
    {
      "inputs": [
        {
          "internalType": "bytes4",
          "name": "interfaceId",
          "type": "bytes4"
        }
      ],
      "name": "supportsInterface",
      "outputs": [
        {
          "internalType": "bool",
          "name": "",
          "type": "bool"
        }
      ],
      "stateMutability": "view",
      "type": "function"
    },
    {
      "inputs": [],
      "name": "symbol",
      "outputs": [
        {
          "internalType": "string",
          "name": "",
          "type": "string"
        }
      ],
      "stateMutability": "view",
      "type": "function"
    },
    {
      "inputs": [
        {
          "internalType": "uint256",
          "name": "_tokenId",
          "type": "uint256"
        }
      ],
      "name": "tokenURI",
      "outputs": [
        {
          "internalType": "string",
          "name": "",
          "type": "string"
        }
      ],
      "stateMutability": "view",
      "type": "function"
    },
    {
      "inputs": [],
      "name": "totalSupply",
      "outputs": [
        {
          "internalType": "uint256",
          "name": "",
          "type": "uint256"
        }
      ],
      "stateMutability": "view",
      "type": "function"
    },
    {
      "inputs": [
        {
          "internalType": "address",
          "name": "from",
          "type": "address"
        },
        {
          "internalType": "address",
          "name": "to",
          "type": "address"
        },
        {
          "internalType": "uint256",
          "name": "tokenId",
          "type": "uint256"
        }
      ],
      "name": "transferFrom",
      "outputs": [],
      "stateMutability": "nonpayable",
      "type": "function"
    },
    {
      "inputs": [
        {
          "internalType": "address",
          "name": "newOwner",
          "type": "address"
        }
      ],
      "name": "transferOwnership",
      "outputs": [],
      "stateMutability": "nonpayable",
      "type": "function"
    },
    {
      "inputs": [],
      "name": "withdraw",
      "outputs": [],
      "stateMutability": "nonpayable",
      "type": "function"
    },
    {
      "inputs": [],
      "name": "withdrawAPE",
      "outputs": [],
      "stateMutability": "nonpayable",
      "type": "function"
    }
  ],
  "bytecode": "0x60806040526040518060600160405280603581526020016200626f60359139600a908051906020019062000035929190620002d6565b506000600c60146101000a81548160ff0219169083151502179055506000600c60156101000a81548160ff0219169083151502179055506000600c60166101000a81548160ff02191690831515021790555067016345785d8a00006010556001601155348015620000a557600080fd5b50604051620062a4380380620062a48339818101604052810190620000cb91906200041b565b6040518060400160405280601281526020017f5468652057656972646f7320436c6f6e657300000000000000000000000000008152506040518060400160405280600581526020017f434c4f4e4500000000000000000000000000000000000000000000000000000081525081600290805190602001906200014f929190620002d6565b50806003908051906020019062000168929190620002d6565b50620001796200020360201b60201c565b6000819055505050620001a1620001956200020860201b60201c565b6200021060201b60201c565b8160099080519060200190620001b9929190620002d6565b5080600b60006101000a81548173ffffffffffffffffffffffffffffffffffffffff021916908373ffffffffffffffffffffffffffffffffffffffff160217905550505062000667565b600090565b600033905090565b6000600860009054906101000a900473ffffffffffffffffffffffffffffffffffffffff16905081600860006101000a81548173ffffffffffffffffffffffffffffffffffffffff021916908373ffffffffffffffffffffffffffffffffffffffff1602179055508173ffffffffffffffffffffffffffffffffffffffff168173ffffffffffffffffffffffffffffffffffffffff167f8be0079c531659141344cd1fd0a4f28419497f9722a3daafe3b4186f6b6457e060405160405180910390a35050565b828054620002e4906200055e565b90600052602060002090601f01602090048101928262000308576000855562000354565b82601f106200032357805160ff191683800117855562000354565b8280016001018555821562000354579182015b828111156200035357825182559160200191906001019062000336565b5b50905062000363919062000367565b5090565b5b808211156200038257600081600090555060010162000368565b5090565b60006200039d6200039784620004aa565b62000481565b905082815260208101848484011115620003bc57620003bb6200062d565b5b620003c984828562000528565b509392505050565b600081519050620003e2816200064d565b92915050565b600082601f8301126200040057620003ff62000628565b5b81516200041284826020860162000386565b91505092915050565b6000806040838503121562000435576200043462000637565b5b600083015167ffffffffffffffff81111562000456576200045562000632565b5b6200046485828601620003e8565b92505060206200047785828601620003d1565b9150509250929050565b60006200048d620004a0565b90506200049b828262000594565b919050565b6000604051905090565b600067ffffffffffffffff821115620004c857620004c7620005f9565b5b620004d3826200063c565b9050602081019050919050565b6000620004ed8262000508565b9050919050565b60006200050182620004e0565b9050919050565b600073ffffffffffffffffffffffffffffffffffffffff82169050919050565b60005b83811015620005485780820151818401526020810190506200052b565b8381111562000558576000848401525b50505050565b600060028204905060018216806200057757607f821691505b602082108114156200058e576200058d620005ca565b5b50919050565b6200059f826200063c565b810181811067ffffffffffffffff82111715620005c157620005c0620005f9565b5b80604052505050565b7f4e487b7100000000000000000000000000000000000000000000000000000000600052602260045260246000fd5b7f4e487b7100000000000000000000000000000000000000000000000000000000600052604160045260246000fd5b600080fd5b600080fd5b600080fd5b600080fd5b6000601f19601f8301169050919050565b6200065881620004f4565b81146200066457600080fd5b50565b615bf880620006776000396000f3fe6080604052600436106102ff5760003560e01c806370a0823111610190578063b9a7f91c116100dc578063e7d5161111610095578063efa00ce71161006f578063efa00ce714610b14578063f2fde38b14610b3d578063fc3c0eee14610b66578063ff981e4914610b8f576102ff565b8063e7d5161114610a83578063e8a3d48514610aac578063e985e9c514610ad7576102ff565b8063b9a7f91c14610975578063bb1cda8f1461099e578063c133cda9146109c7578063c87b56dd146109f0578063cc02b89314610a2d578063d4a6a2fd14610a58576102ff565b806395d89b4111610149578063a22cb46511610123578063a22cb465146108e3578063a538e9be1461090c578063b3c8ee1f14610935578063b88d4fde1461094c576102ff565b806395d89b41146108625780639c4dab521461088d5780639d1d9aa6146108b8576102ff565b806370a0823114610752578063715018a61461078f5780637822ed49146107a65780638af096d3146107d15780638da5cb5b146107fa57806390f2666314610825576102ff565b806333f1a0e61161024f57806350f4de89116102085780635cbcec4e116101e25780635cbcec4e146106a55780636352211e146106ce5780636792225f1461070b5780636c0360eb14610727576102ff565b806350f4de891461063557806355f804b314610660578063566cd6bd14610689576102ff565b806333f1a0e61461054b57806337929eb4146105745780633c92f45b1461059f5780633ccfd60b146105ca5780633f2981cf146105e157806342842e0e1461060c576102ff565b8063136af442116102bc57806320f96dac1161029657806320f96dac146104a5578063211418ab146104ce57806323b872dd146104f757806332cb6b0c14610520576102ff565b8063136af4421461042857806318160ddd146104515780631b89a7c91461047c576102ff565b806301ffc9a714610304578063058d000d1461034157806306635aae1461036c57806306fdde0314610397578063081812fc146103c2578063095ea7b3146103ff575b600080fd5b34801561031057600080fd5b5061032b600480360381019061032691906148c2565b610bcc565b604051610338919061507e565b60405180910390f35b34801561034d57600080fd5b50610356610cae565b60405161036391906150b4565b60405180910390f35b34801561037857600080fd5b50610381610cd4565b60405161038e9190615099565b60405180910390f35b3480156103a357600080fd5b506103ac610cda565b6040516103b991906150cf565b60405180910390f35b3480156103ce57600080fd5b506103e960048036038101906103e49190614992565b610d6c565b6040516103f69190614fb7565b60405180910390f35b34801561040b57600080fd5b50610426600480360381019061042191906147fb565b610de8565b005b34801561043457600080fd5b5061044f600480360381019061044a919061491c565b610ef3565b005b34801561045d57600080fd5b50610466610f3c565b6040516104739190615311565b60405180910390f35b34801561048857600080fd5b506104a3600480360381019061049e919061483b565b610f53565b005b3480156104b157600080fd5b506104cc60048036038101906104c79190614895565b610fec565b005b3480156104da57600080fd5b506104f560048036038101906104f0919061483b565b611072565b005b34801561050357600080fd5b5061051e600480360381019061051991906146e5565b61110b565b005b34801561052c57600080fd5b5061053561111b565b6040516105429190615311565b60405180910390f35b34801561055757600080fd5b50610572600480360381019061056d9190614895565b611121565b005b34801561058057600080fd5b506105896111a7565b60405161059691906150cf565b60405180910390f35b3480156105ab57600080fd5b506105b4611239565b6040516105c1919061507e565b60405180910390f35b3480156105d657600080fd5b506105df61124c565b005b3480156105ed57600080fd5b506105f66113af565b604051610603919061507e565b60405180910390f35b34801561061857600080fd5b50610633600480360381019061062e91906146e5565b6113c2565b005b34801561064157600080fd5b5061064a6113e2565b6040516106579190615311565b60405180910390f35b34801561066c57600080fd5b5061068760048036038101906106829190614949565b6113e8565b005b6106a3600480360381019061069e9190614a93565b61147e565b005b3480156106b157600080fd5b506106cc60048036038101906106c7919061483b565b611763565b005b3480156106da57600080fd5b506106f560048036038101906106f09190614992565b6117fc565b6040516107029190614fb7565b60405180910390f35b610725600480360381019061072091906149ec565b611812565b005b34801561073357600080fd5b5061073c611a6b565b60405161074991906150cf565b60405180910390f35b34801561075e57600080fd5b5061077960048036038101906107749190614678565b611af9565b6040516107869190615311565b60405180910390f35b34801561079b57600080fd5b506107a4611bc9565b005b3480156107b257600080fd5b506107bb611c51565b6040516107c89190614fb7565b60405180910390f35b3480156107dd57600080fd5b506107f860048036038101906107f39190614a93565b611c77565b005b34801561080657600080fd5b5061080f6120bf565b60405161081c9190614fb7565b60405180910390f35b34801561083157600080fd5b5061084c60048036038101906108479190614678565b6120e9565b6040516108599190615311565b60405180910390f35b34801561086e57600080fd5b50610877612101565b60405161088491906150cf565b60405180910390f35b34801561089957600080fd5b506108a2612193565b6040516108af9190615099565b60405180910390f35b3480156108c457600080fd5b506108cd612199565b6040516108da9190615099565b60405180910390f35b3480156108ef57600080fd5b5061090a600480360381019061090591906147bb565b61219f565b005b34801561091857600080fd5b50610933600480360381019061092e9190614992565b612317565b005b34801561094157600080fd5b5061094a61239d565b005b34801561095857600080fd5b50610973600480360381019061096e9190614738565b6125f6565b005b34801561098157600080fd5b5061099c60048036038101906109979190614992565b612672565b005b3480156109aa57600080fd5b506109c560048036038101906109c09190614895565b6126f8565b005b3480156109d357600080fd5b506109ee60048036038101906109e991906149ec565b61277e565b005b3480156109fc57600080fd5b50610a176004803603810190610a129190614992565b612b3a565b604051610a2491906150cf565b60405180910390f35b348015610a3957600080fd5b50610a42612bb6565b604051610a4f9190615311565b60405180910390f35b348015610a6457600080fd5b50610a6d612bbc565b604051610a7a919061507e565b60405180910390f35b348015610a8f57600080fd5b50610aaa6004803603810190610aa59190614a93565b612bcf565b005b348015610ab857600080fd5b50610ac1612e65565b604051610ace91906150cf565b60405180910390f35b348015610ae357600080fd5b50610afe6004803603810190610af991906146a5565b612ef3565b604051610b0b919061507e565b60405180910390f35b348015610b2057600080fd5b50610b3b6004803603810190610b369190614949565b612f87565b005b348015610b4957600080fd5b50610b646004803603810190610b5f9190614678565b61301d565b005b348015610b7257600080fd5b50610b8d6004803603810190610b889190614678565b613115565b005b348015610b9b57600080fd5b50610bb66004803603810190610bb19190614678565b6131d5565b604051610bc39190615311565b60405180910390f35b60007f80ac58cd000000000000000000000000000000000000000000000000000000007bffffffffffffffffffffffffffffffffffffffffffffffffffffffff1916827bffffffffffffffffffffffffffffffffffffffffffffffffffffffff19161480610c9757507f5b5e139f000000000000000000000000000000000000000000000000000000007bffffffffffffffffffffffffffffffffffffffffffffffffffffffff1916827bffffffffffffffffffffffffffffffffffffffffffffffffffffffff1916145b80610ca75750610ca6826131ed565b5b9050919050565b600b60009054906101000a900473ffffffffffffffffffffffffffffffffffffffff1681565b600e5481565b606060028054610ce99061562e565b80601f0160208091040260200160405190810160405280929190818152602001828054610d159061562e565b8015610d625780601f10610d3757610100808354040283529160200191610d62565b820191906000526020600020905b815481529060010190602001808311610d4557829003601f168201915b5050505050905090565b6000610d7782613257565b610dad576040517fcf4700e400000000000000000000000000000000000000000000000000000000815260040160405180910390fd5b6006600083815260200190815260200160002060009054906101000a900473ffffffffffffffffffffffffffffffffffffffff169050919050565b6000610df3826117fc565b90508073ffffffffffffffffffffffffffffffffffffffff168373ffffffffffffffffffffffffffffffffffffffff161415610e5b576040517f943f7b8c00000000000000000000000000000000000000000000000000000000815260040160405180910390fd5b8073ffffffffffffffffffffffffffffffffffffffff16610e7a6132a5565b73ffffffffffffffffffffffffffffffffffffffff1614158015610eac5750610eaa81610ea56132a5565b612ef3565b155b15610ee3576040517fcfb3b94200000000000000000000000000000000000000000000000000000000815260040160405180910390fd5b610eee8383836132ad565b505050565b60058160000b13610f39576040517f08c379a0000000000000000000000000000000000000000000000000000000008152600401610f3090615291565b60405180910390fd5b50565b6000610f4661335f565b6001546000540303905090565b610f5b6132a5565b73ffffffffffffffffffffffffffffffffffffffff16610f796120bf565b73ffffffffffffffffffffffffffffffffffffffff1614610fcf576040517f08c379a0000000000000000000000000000000000000000000000000000000008152600401610fc6906151f1565b60405180910390fd5b80600c60156101000a81548160ff02191690831515021790555050565b610ff46132a5565b73ffffffffffffffffffffffffffffffffffffffff166110126120bf565b73ffffffffffffffffffffffffffffffffffffffff1614611068576040517f08c379a000000000000000000000000000000000000000000000000000000000815260040161105f906151f1565b60405180910390fd5b80600e8190555050565b61107a6132a5565b73ffffffffffffffffffffffffffffffffffffffff166110986120bf565b73ffffffffffffffffffffffffffffffffffffffff16146110ee576040517f08c379a00000000000000000000000000000000000000000000000000000000081526004016110e5906151f1565b60405180910390fd5b80600c60146101000a81548160ff02191690831515021790555050565b611116838383613364565b505050565b61243881565b6111296132a5565b73ffffffffffffffffffffffffffffffffffffffff166111476120bf565b73ffffffffffffffffffffffffffffffffffffffff161461119d576040517f08c379a0000000000000000000000000000000000000000000000000000000008152600401611194906151f1565b60405180910390fd5b80600f8190555050565b6060600a80546111b69061562e565b80601f01602080910402602001604051908101604052809291908181526020018280546111e29061562e565b801561122f5780601f106112045761010080835404028352916020019161122f565b820191906000526020600020905b81548152906001019060200180831161121257829003601f168201915b5050505050905090565b600c60159054906101000a900460ff1681565b600073ffffffffffffffffffffffffffffffffffffffff16600c60009054906101000a900473ffffffffffffffffffffffffffffffffffffffff1673ffffffffffffffffffffffffffffffffffffffff1614156112de576040517f08c379a00000000000000000000000000000000000000000000000000000000081526004016112d5906152f1565b60405180910390fd5b6000600c60009054906101000a900473ffffffffffffffffffffffffffffffffffffffff1673ffffffffffffffffffffffffffffffffffffffff164760405161132690614fa2565b60006040518083038185875af1925050503d8060008114611363576040519150601f19603f3d011682016040523d82523d6000602084013e611368565b606091505b50509050806113ac576040517f08c379a00000000000000000000000000000000000000000000000000000000081526004016113a3906150f1565b60405180910390fd5b50565b600c60169054906101000a900460ff1681565b6113dd838383604051806020016040528060008152506125f6565b505050565b60115481565b6113f06132a5565b73ffffffffffffffffffffffffffffffffffffffff1661140e6120bf565b73ffffffffffffffffffffffffffffffffffffffff1614611464576040517f08c379a000000000000000000000000000000000000000000000000000000000815260040161145b906151f1565b60405180910390fd5b806009908051906020019061147a929190614349565b5050565b6114866132a5565b73ffffffffffffffffffffffffffffffffffffffff163273ffffffffffffffffffffffffffffffffffffffff16146114f3576040517f08c379a00000000000000000000000000000000000000000000000000000000081526004016114ea90615231565b60405180910390fd5b600c60159054906101000a900460ff16611542576040517f08c379a000000000000000000000000000000000000000000000000000000000815260040161153990615271565b60405180910390fd5b600061154c6132a5565b60405160200161155c9190614f26565b60405160208183030381529060405290506115cc61158261157c8661381a565b8361397b565b848480806020026020016040519081016040528093929190818152602001838360200280828437600081840152601f19601f82011690508083019250505050505050600e546139ae565b61160b576040517f08c379a000000000000000000000000000000000000000000000000000000000815260040161160290615191565b60405180910390fd5b8385601360006116196132a5565b73ffffffffffffffffffffffffffffffffffffffff1673ffffffffffffffffffffffffffffffffffffffff1681526020019081526020016000205461165e9190615416565b111561169f576040517f08c379a000000000000000000000000000000000000000000000000000000000815260040161169690615151565b60405180910390fd5b34601054866116ae919061549d565b146116ee576040517f08c379a00000000000000000000000000000000000000000000000000000000081526004016116e590615211565b60405180910390fd5b84601360006116fb6132a5565b73ffffffffffffffffffffffffffffffffffffffff1673ffffffffffffffffffffffffffffffffffffffff16815260200190815260200160002060008282546117449190615416565b9250508190555061175c6117566132a5565b866139c4565b5050505050565b61176b6132a5565b73ffffffffffffffffffffffffffffffffffffffff166117896120bf565b73ffffffffffffffffffffffffffffffffffffffff16146117df576040517f08c379a00000000000000000000000000000000000000000000000000000000081526004016117d6906151f1565b60405180910390fd5b80600c60166101000a81548160ff02191690831515021790555050565b6000611807826139e2565b600001519050919050565b61181a6132a5565b73ffffffffffffffffffffffffffffffffffffffff163273ffffffffffffffffffffffffffffffffffffffff1614611887576040517f08c379a000000000000000000000000000000000000000000000000000000000815260040161187e90615231565b60405180910390fd5b600c60169054906101000a900460ff166118d6576040517f08c379a00000000000000000000000000000000000000000000000000000000081526004016118cd906152b1565b60405180910390fd5b600083836040516020016118eb929190614f41565b604051602081830303815290604052905061195b61191161190b8461381a565b8361397b565b878780806020026020016040519081016040528093929190818152602001838360200280828437600081840152601f19601f82011690508083019250505050505050600f546139ae565b61199a576040517f08c379a000000000000000000000000000000000000000000000000000000000815260040161199190615191565b60405180910390fd5b60006119a4610f3c565b905060016124386119b59190615416565b88826119c19190615416565b10611a01576040517f08c379a00000000000000000000000000000000000000000000000000000000081526004016119f890615251565b60405180910390fd5b3460105489611a10919061549d565b14611a50576040517f08c379a0000000000000000000000000000000000000000000000000000000008152600401611a4790615211565b60405180910390fd5b611a61611a5b6132a5565b896139c4565b5050505050505050565b60098054611a789061562e565b80601f0160208091040260200160405190810160405280929190818152602001828054611aa49061562e565b8015611af15780601f10611ac657610100808354040283529160200191611af1565b820191906000526020600020905b815481529060010190602001808311611ad457829003601f168201915b505050505081565b60008073ffffffffffffffffffffffffffffffffffffffff168273ffffffffffffffffffffffffffffffffffffffff161415611b61576040517f8f4eb60400000000000000000000000000000000000000000000000000000000815260040160405180910390fd5b600560008373ffffffffffffffffffffffffffffffffffffffff1673ffffffffffffffffffffffffffffffffffffffff16815260200190815260200160002060000160009054906101000a900467ffffffffffffffff1667ffffffffffffffff169050919050565b611bd16132a5565b73ffffffffffffffffffffffffffffffffffffffff16611bef6120bf565b73ffffffffffffffffffffffffffffffffffffffff1614611c45576040517f08c379a0000000000000000000000000000000000000000000000000000000008152600401611c3c906151f1565b60405180910390fd5b611c4f6000613c71565b565b600c60009054906101000a900473ffffffffffffffffffffffffffffffffffffffff1681565b611c7f6132a5565b73ffffffffffffffffffffffffffffffffffffffff163273ffffffffffffffffffffffffffffffffffffffff1614611cec576040517f08c379a0000000000000000000000000000000000000000000000000000000008152600401611ce390615231565b60405180910390fd5b600c60159054906101000a900460ff16611d3b576040517f08c379a0000000000000000000000000000000000000000000000000000000008152600401611d3290615271565b60405180910390fd5b6000611d456132a5565b604051602001611d559190614f26565b6040516020818303038152906040529050611dc5611d7b611d758661381a565b8361397b565b848480806020026020016040519081016040528093929190818152602001838360200280828437600081840152601f19601f82011690508083019250505050505050600e546139ae565b611e04576040517f08c379a0000000000000000000000000000000000000000000000000000000008152600401611dfb90615191565b60405180910390fd5b838560136000611e126132a5565b73ffffffffffffffffffffffffffffffffffffffff1673ffffffffffffffffffffffffffffffffffffffff16815260200190815260200160002054611e579190615416565b1115611e98576040517f08c379a0000000000000000000000000000000000000000000000000000000008152600401611e8f90615151565b60405180910390fd5b600060115486611ea8919061549d565b905080600b60009054906101000a900473ffffffffffffffffffffffffffffffffffffffff1673ffffffffffffffffffffffffffffffffffffffff166370a08231336040518263ffffffff1660e01b8152600401611f069190614fb7565b60206040518083038186803b158015611f1e57600080fd5b505afa158015611f32573d6000803e3d6000fd5b505050506040513d601f19601f82011682018060405250810190611f5691906149bf565b1015611f97576040517f08c379a0000000000000000000000000000000000000000000000000000000008152600401611f8e906151d1565b60405180910390fd5b600b60009054906101000a900473ffffffffffffffffffffffffffffffffffffffff1673ffffffffffffffffffffffffffffffffffffffff166323b872dd3330846040518463ffffffff1660e01b8152600401611ff693929190614fd2565b602060405180830381600087803b15801561201057600080fd5b505af1158015612024573d6000803e3d6000fd5b505050506040513d601f19601f820116820180604052508101906120489190614868565b5085601360006120566132a5565b73ffffffffffffffffffffffffffffffffffffffff1673ffffffffffffffffffffffffffffffffffffffff168152602001908152602001600020600082825461209f9190615416565b925050819055506120b76120b16132a5565b876139c4565b505050505050565b6000600860009054906101000a900473ffffffffffffffffffffffffffffffffffffffff16905090565b60126020528060005260406000206000915090505481565b6060600380546121109061562e565b80601f016020809104026020016040519081016040528092919081815260200182805461213c9061562e565b80156121895780601f1061215e57610100808354040283529160200191612189565b820191906000526020600020905b81548152906001019060200180831161216c57829003601f168201915b5050505050905090565b600d5481565b600f5481565b6121a76132a5565b73ffffffffffffffffffffffffffffffffffffffff168273ffffffffffffffffffffffffffffffffffffffff16141561220c576040517fb06307db00000000000000000000000000000000000000000000000000000000815260040160405180910390fd5b80600760006122196132a5565b73ffffffffffffffffffffffffffffffffffffffff1673ffffffffffffffffffffffffffffffffffffffff16815260200190815260200160002060008473ffffffffffffffffffffffffffffffffffffffff1673ffffffffffffffffffffffffffffffffffffffff16815260200190815260200160002060006101000a81548160ff0219169083151502179055508173ffffffffffffffffffffffffffffffffffffffff166122c66132a5565b73ffffffffffffffffffffffffffffffffffffffff167f17307eab39ab6107e8899845ad3d59bd9653f200f220920489ca2b5937696c318360405161230b919061507e565b60405180910390a35050565b61231f6132a5565b73ffffffffffffffffffffffffffffffffffffffff1661233d6120bf565b73ffffffffffffffffffffffffffffffffffffffff1614612393576040517f08c379a000000000000000000000000000000000000000000000000000000000815260040161238a906151f1565b60405180910390fd5b8060118190555050565b600073ffffffffffffffffffffffffffffffffffffffff16600c60009054906101000a900473ffffffffffffffffffffffffffffffffffffffff1673ffffffffffffffffffffffffffffffffffffffff16141561242f576040517f08c379a0000000000000000000000000000000000000000000000000000000008152600401612426906152f1565b60405180910390fd5b6000600b60009054906101000a900473ffffffffffffffffffffffffffffffffffffffff1673ffffffffffffffffffffffffffffffffffffffff166370a08231306040518263ffffffff1660e01b815260040161248c9190614fb7565b60206040518083038186803b1580156124a457600080fd5b505afa1580156124b8573d6000803e3d6000fd5b505050506040513d601f19601f820116820180604052508101906124dc91906149bf565b905060008111612521576040517f08c379a000000000000000000000000000000000000000000000000000000000815260040161251890615131565b60405180910390fd5b600b60009054906101000a900473ffffffffffffffffffffffffffffffffffffffff1673ffffffffffffffffffffffffffffffffffffffff1663a9059cbb600c60009054906101000a900473ffffffffffffffffffffffffffffffffffffffff16836040518363ffffffff1660e01b81526004016125a0929190615055565b602060405180830381600087803b1580156125ba57600080fd5b505af11580156125ce573d6000803e3d6000fd5b505050506040513d601f19601f820116820180604052508101906125f29190614868565b5050565b612601848484613364565b6126208373ffffffffffffffffffffffffffffffffffffffff16613d37565b8015612635575061263384848484613d5a565b155b1561266c576040517fd1a57ed600000000000000000000000000000000000000000000000000000000815260040160405180910390fd5b50505050565b61267a6132a5565b73ffffffffffffffffffffffffffffffffffffffff166126986120bf565b73ffffffffffffffffffffffffffffffffffffffff16146126ee576040517f08c379a00000000000000000000000000000000000000000000000000000000081526004016126e5906151f1565b60405180910390fd5b8060108190555050565b6127006132a5565b73ffffffffffffffffffffffffffffffffffffffff1661271e6120bf565b73ffffffffffffffffffffffffffffffffffffffff1614612774576040517f08c379a000000000000000000000000000000000000000000000000000000000815260040161276b906151f1565b60405180910390fd5b80600d8190555050565b6127866132a5565b73ffffffffffffffffffffffffffffffffffffffff163273ffffffffffffffffffffffffffffffffffffffff16146127f3576040517f08c379a00000000000000000000000000000000000000000000000000000000081526004016127ea90615231565b60405180910390fd5b600c60169054906101000a900460ff16612842576040517f08c379a0000000000000000000000000000000000000000000000000000000008152600401612839906152b1565b60405180910390fd5b60008383604051602001612857929190614f41565b60405160208183030381529060405290506128c761287d6128778461381a565b8361397b565b878780806020026020016040519081016040528093929190818152602001838360200280828437600081840152601f19601f82011690508083019250505050505050600f546139ae565b612906576040517f08c379a00000000000000000000000000000000000000000000000000000000081526004016128fd90615191565b60405180910390fd5b6000612910610f3c565b905060016124386129219190615416565b888261292d9190615416565b1061296d576040517f08c379a000000000000000000000000000000000000000000000000000000000815260040161296490615251565b60405180910390fd5b60006011548961297d919061549d565b905080600b60009054906101000a900473ffffffffffffffffffffffffffffffffffffffff1673ffffffffffffffffffffffffffffffffffffffff166370a08231336040518263ffffffff1660e01b81526004016129db9190614fb7565b60206040518083038186803b1580156129f357600080fd5b505afa158015612a07573d6000803e3d6000fd5b505050506040513d601f19601f82011682018060405250810190612a2b91906149bf565b1015612a6c576040517f08c379a0000000000000000000000000000000000000000000000000000000008152600401612a63906151d1565b60405180910390fd5b600b60009054906101000a900473ffffffffffffffffffffffffffffffffffffffff1673ffffffffffffffffffffffffffffffffffffffff166323b872dd3330846040518463ffffffff1660e01b8152600401612acb93929190614fd2565b602060405180830381600087803b158015612ae557600080fd5b505af1158015612af9573d6000803e3d6000fd5b505050506040513d601f19601f82011682018060405250810190612b1d9190614868565b50612b2f612b296132a5565b8a6139c4565b505050505050505050565b6060612b4582613257565b612b84576040517f08c379a0000000000000000000000000000000000000000000000000000000008152600401612b7b90615171565b60405180910390fd5b6009612b8f8361381a565b604051602001612ba0929190614f7e565b6040516020818303038152906040529050919050565b60105481565b600c60149054906101000a900460ff1681565b612bd76132a5565b73ffffffffffffffffffffffffffffffffffffffff163273ffffffffffffffffffffffffffffffffffffffff1614612c44576040517f08c379a0000000000000000000000000000000000000000000000000000000008152600401612c3b90615231565b60405180910390fd5b600c60149054906101000a900460ff16612c93576040517f08c379a0000000000000000000000000000000000000000000000000000000008152600401612c8a906151b1565b60405180910390fd5b6000612c9d6132a5565b604051602001612cad9190614f26565b6040516020818303038152906040529050612d1d612cd3612ccd8661381a565b8361397b565b848480806020026020016040519081016040528093929190818152602001838360200280828437600081840152601f19601f82011690508083019250505050505050600d546139ae565b612d5c576040517f08c379a0000000000000000000000000000000000000000000000000000000008152600401612d5390615191565b60405180910390fd5b838560126000612d6a6132a5565b73ffffffffffffffffffffffffffffffffffffffff1673ffffffffffffffffffffffffffffffffffffffff16815260200190815260200160002054612daf9190615416565b1115612df0576040517f08c379a0000000000000000000000000000000000000000000000000000000008152600401612de7906152d1565b60405180910390fd5b8460126000612dfd6132a5565b73ffffffffffffffffffffffffffffffffffffffff1673ffffffffffffffffffffffffffffffffffffffff1681526020019081526020016000206000828254612e469190615416565b92505081905550612e5e612e586132a5565b866139c4565b5050505050565b600a8054612e729061562e565b80601f0160208091040260200160405190810160405280929190818152602001828054612e9e9061562e565b8015612eeb5780601f10612ec057610100808354040283529160200191612eeb565b820191906000526020600020905b815481529060010190602001808311612ece57829003601f168201915b505050505081565b6000600760008473ffffffffffffffffffffffffffffffffffffffff1673ffffffffffffffffffffffffffffffffffffffff16815260200190815260200160002060008373ffffffffffffffffffffffffffffffffffffffff1673ffffffffffffffffffffffffffffffffffffffff16815260200190815260200160002060009054906101000a900460ff16905092915050565b612f8f6132a5565b73ffffffffffffffffffffffffffffffffffffffff16612fad6120bf565b73ffffffffffffffffffffffffffffffffffffffff1614613003576040517f08c379a0000000000000000000000000000000000000000000000000000000008152600401612ffa906151f1565b60405180910390fd5b80600a9080519060200190613019929190614349565b5050565b6130256132a5565b73ffffffffffffffffffffffffffffffffffffffff166130436120bf565b73ffffffffffffffffffffffffffffffffffffffff1614613099576040517f08c379a0000000000000000000000000000000000000000000000000000000008152600401613090906151f1565b60405180910390fd5b600073ffffffffffffffffffffffffffffffffffffffff168173ffffffffffffffffffffffffffffffffffffffff161415613109576040517f08c379a000000000000000000000000000000000000000000000000000000000815260040161310090615111565b60405180910390fd5b61311281613c71565b50565b61311d6132a5565b73ffffffffffffffffffffffffffffffffffffffff1661313b6120bf565b73ffffffffffffffffffffffffffffffffffffffff1614613191576040517f08c379a0000000000000000000000000000000000000000000000000000000008152600401613188906151f1565b60405180910390fd5b80600c60006101000a81548173ffffffffffffffffffffffffffffffffffffffff021916908373ffffffffffffffffffffffffffffffffffffffff16021790555050565b60136020528060005260406000206000915090505481565b60007f01ffc9a7000000000000000000000000000000000000000000000000000000007bffffffffffffffffffffffffffffffffffffffffffffffffffffffff1916827bffffffffffffffffffffffffffffffffffffffffffffffffffffffff1916149050919050565b60008161326261335f565b11158015613271575060005482105b801561329e575060046000838152602001908152602001600020600001601c9054906101000a900460ff16155b9050919050565b600033905090565b826006600084815260200190815260200160002060006101000a81548173ffffffffffffffffffffffffffffffffffffffff021916908373ffffffffffffffffffffffffffffffffffffffff160217905550818373ffffffffffffffffffffffffffffffffffffffff168273ffffffffffffffffffffffffffffffffffffffff167f8c5be1e5ebec7d5bd14f71427d1e84f3dd0314c0f7b2291e5b200ac8c7c3b92560405160405180910390a4505050565b600090565b600061336f826139e2565b90508373ffffffffffffffffffffffffffffffffffffffff16816000015173ffffffffffffffffffffffffffffffffffffffff16146133da576040517fa114810000000000000000000000000000000000000000000000000000000000815260040160405180910390fd5b60008473ffffffffffffffffffffffffffffffffffffffff166133fb6132a5565b73ffffffffffffffffffffffffffffffffffffffff16148061342a5750613429856134246132a5565b612ef3565b5b8061346f57506134386132a5565b73ffffffffffffffffffffffffffffffffffffffff1661345784610d6c565b73ffffffffffffffffffffffffffffffffffffffff16145b9050806134a8576040517f59c896be00000000000000000000000000000000000000000000000000000000815260040160405180910390fd5b600073ffffffffffffffffffffffffffffffffffffffff168473ffffffffffffffffffffffffffffffffffffffff16141561350f576040517fea553b3400000000000000000000000000000000000000000000000000000000815260040160405180910390fd5b61351c8585856001613eba565b613528600084876132ad565b6001600560008773ffffffffffffffffffffffffffffffffffffffff1673ffffffffffffffffffffffffffffffffffffffff16815260200190815260200160002060000160008282829054906101000a900467ffffffffffffffff160392506101000a81548167ffffffffffffffff021916908367ffffffffffffffff1602179055506001600560008673ffffffffffffffffffffffffffffffffffffffff1673ffffffffffffffffffffffffffffffffffffffff16815260200190815260200160002060000160008282829054906101000a900467ffffffffffffffff160192506101000a81548167ffffffffffffffff021916908367ffffffffffffffff1602179055506000600460008581526020019081526020016000209050848160000160006101000a81548173ffffffffffffffffffffffffffffffffffffffff021916908373ffffffffffffffffffffffffffffffffffffffff160217905550428160000160146101000a81548167ffffffffffffffff021916908367ffffffffffffffff16021790555060006001850190506000600460008381526020019081526020016000209050600073ffffffffffffffffffffffffffffffffffffffff168160000160009054906101000a900473ffffffffffffffffffffffffffffffffffffffff1673ffffffffffffffffffffffffffffffffffffffff1614156137a85760005482146137a757878160000160006101000a81548173ffffffffffffffffffffffffffffffffffffffff021916908373ffffffffffffffffffffffffffffffffffffffff16021790555084602001518160000160146101000a81548167ffffffffffffffff021916908367ffffffffffffffff1602179055505b5b505050828473ffffffffffffffffffffffffffffffffffffffff168673ffffffffffffffffffffffffffffffffffffffff167fddf252ad1be2c89b69c2b068fc378daa952ba7f163c4a11628f55a4df523b3ef60405160405180910390a46138138585856001613ec0565b5050505050565b60606000821415613862576040518060400160405280600181526020017f30000000000000000000000000000000000000000000000000000000000000008152509050613976565b600082905060005b6000821461389457808061387d90615691565b915050600a8261388d919061546c565b915061386a565b60008167ffffffffffffffff8111156138b0576138af6157eb565b5b6040519080825280601f01601f1916602001820160405280156138e25781602001600182028036833780820191505090505b5090505b6000851461396f576001826138fb91906154f7565b9150600a8561390a91906156fe565b60306139169190615416565b60f81b81838151811061392c5761392b6157bc565b5b60200101907effffffffffffffffffffffffffffffffffffffffffffffffffffffffffffff1916908160001a905350600a85613968919061546c565b94506138e6565b8093505050505b919050565b60008183604051602001613990929190614f5a565b60405160208183030381529060405280519060200120905092915050565b60006139bb838386613ec6565b90509392505050565b6139de828260405180602001604052806000815250613edd565b5050565b6139ea6143cf565b6000829050806139f861335f565b11158015613a07575060005481105b15613c3a576000600460008381526020019081526020016000206040518060600160405290816000820160009054906101000a900473ffffffffffffffffffffffffffffffffffffffff1673ffffffffffffffffffffffffffffffffffffffff1673ffffffffffffffffffffffffffffffffffffffff1681526020016000820160149054906101000a900467ffffffffffffffff1667ffffffffffffffff1667ffffffffffffffff16815260200160008201601c9054906101000a900460ff16151515158152505090508060400151613c3857600073ffffffffffffffffffffffffffffffffffffffff16816000015173ffffffffffffffffffffffffffffffffffffffff1614613b1c578092505050613c6c565b5b600115613c3757818060019003925050600460008381526020019081526020016000206040518060600160405290816000820160009054906101000a900473ffffffffffffffffffffffffffffffffffffffff1673ffffffffffffffffffffffffffffffffffffffff1673ffffffffffffffffffffffffffffffffffffffff1681526020016000820160149054906101000a900467ffffffffffffffff1667ffffffffffffffff1667ffffffffffffffff16815260200160008201601c9054906101000a900460ff1615151515815250509050600073ffffffffffffffffffffffffffffffffffffffff16816000015173ffffffffffffffffffffffffffffffffffffffff1614613c32578092505050613c6c565b613b1d565b5b505b6040517fdf2d9b4200000000000000000000000000000000000000000000000000000000815260040160405180910390fd5b919050565b6000600860009054906101000a900473ffffffffffffffffffffffffffffffffffffffff16905081600860006101000a81548173ffffffffffffffffffffffffffffffffffffffff021916908373ffffffffffffffffffffffffffffffffffffffff1602179055508173ffffffffffffffffffffffffffffffffffffffff168173ffffffffffffffffffffffffffffffffffffffff167f8be0079c531659141344cd1fd0a4f28419497f9722a3daafe3b4186f6b6457e060405160405180910390a35050565b6000808273ffffffffffffffffffffffffffffffffffffffff163b119050919050565b60008373ffffffffffffffffffffffffffffffffffffffff1663150b7a02613d806132a5565b8786866040518563ffffffff1660e01b8152600401613da29493929190615009565b602060405180830381600087803b158015613dbc57600080fd5b505af1925050508015613ded57506040513d601f19601f82011682018060405250810190613dea91906148ef565b60015b613e67573d8060008114613e1d576040519150601f19603f3d011682016040523d82523d6000602084013e613e22565b606091505b50600081511415613e5f576040517fd1a57ed600000000000000000000000000000000000000000000000000000000815260040160405180910390fd5b805181602001fd5b63150b7a0260e01b7bffffffffffffffffffffffffffffffffffffffffffffffffffffffff1916817bffffffffffffffffffffffffffffffffffffffffffffffffffffffff191614915050949350505050565b50505050565b50505050565b600082613ed38584613eef565b1490509392505050565b613eea8383836001613f64565b505050565b60008082905060005b8451811015613f59576000858281518110613f1657613f156157bc565b5b60200260200101519050808311613f3857613f318382614332565b9250613f45565b613f428184614332565b92505b508080613f5190615691565b915050613ef8565b508091505092915050565b600080549050600073ffffffffffffffffffffffffffffffffffffffff168573ffffffffffffffffffffffffffffffffffffffff161415613fd1576040517f2e07630000000000000000000000000000000000000000000000000000000000815260040160405180910390fd5b600084141561400c576040517fb562e8dd00000000000000000000000000000000000000000000000000000000815260040160405180910390fd5b6140196000868387613eba565b83600560008773ffffffffffffffffffffffffffffffffffffffff1673ffffffffffffffffffffffffffffffffffffffff16815260200190815260200160002060000160008282829054906101000a900467ffffffffffffffff160192506101000a81548167ffffffffffffffff021916908367ffffffffffffffff16021790555083600560008773ffffffffffffffffffffffffffffffffffffffff1673ffffffffffffffffffffffffffffffffffffffff16815260200190815260200160002060000160088282829054906101000a900467ffffffffffffffff160192506101000a81548167ffffffffffffffff021916908367ffffffffffffffff160217905550846004600083815260200190815260200160002060000160006101000a81548173ffffffffffffffffffffffffffffffffffffffff021916908373ffffffffffffffffffffffffffffffffffffffff160217905550426004600083815260200190815260200160002060000160146101000a81548167ffffffffffffffff021916908367ffffffffffffffff1602179055506000819050600085820190508380156141e357506141e28773ffffffffffffffffffffffffffffffffffffffff16613d37565b5b156142a9575b818773ffffffffffffffffffffffffffffffffffffffff16600073ffffffffffffffffffffffffffffffffffffffff167fddf252ad1be2c89b69c2b068fc378daa952ba7f163c4a11628f55a4df523b3ef60405160405180910390a46142586000888480600101955088613d5a565b61428e576040517fd1a57ed600000000000000000000000000000000000000000000000000000000815260040160405180910390fd5b808214156141e95782600054146142a457600080fd5b614315565b5b818060010192508773ffffffffffffffffffffffffffffffffffffffff16600073ffffffffffffffffffffffffffffffffffffffff167fddf252ad1be2c89b69c2b068fc378daa952ba7f163c4a11628f55a4df523b3ef60405160405180910390a4808214156142aa575b81600081905550505061432b6000868387613ec0565b5050505050565b600082600052816020526040600020905092915050565b8280546143559061562e565b90600052602060002090601f01602090048101928261437757600085556143be565b82601f1061439057805160ff19168380011785556143be565b828001600101855582156143be579182015b828111156143bd5782518255916020019190600101906143a2565b5b5090506143cb9190614412565b5090565b6040518060600160405280600073ffffffffffffffffffffffffffffffffffffffff168152602001600067ffffffffffffffff1681526020016000151581525090565b5b8082111561442b576000816000905550600101614413565b5090565b600061444261443d84615351565b61532c565b90508281526020810184848401111561445e5761445d615829565b5b6144698482856155ec565b509392505050565b600061448461447f84615382565b61532c565b9050828152602081018484840111156144a05761449f615829565b5b6144ab8482856155ec565b509392505050565b6000813590506144c281615b38565b92915050565b60008083601f8401126144de576144dd61581f565b5b8235905067ffffffffffffffff8111156144fb576144fa61581a565b5b60208301915083602082028301111561451757614516615824565b5b9250929050565b60008135905061452d81615b4f565b92915050565b60008151905061454281615b4f565b92915050565b60008135905061455781615b66565b92915050565b60008135905061456c81615b7d565b92915050565b60008151905061458181615b7d565b92915050565b600082601f83011261459c5761459b61581f565b5b81356145ac84826020860161442f565b91505092915050565b6000813590506145c481615b94565b92915050565b60008083601f8401126145e0576145df61581f565b5b8235905067ffffffffffffffff8111156145fd576145fc61581a565b5b60208301915083600182028301111561461957614618615824565b5b9250929050565b600082601f8301126146355761463461581f565b5b8135614645848260208601614471565b91505092915050565b60008135905061465d81615bab565b92915050565b60008151905061467281615bab565b92915050565b60006020828403121561468e5761468d615833565b5b600061469c848285016144b3565b91505092915050565b600080604083850312156146bc576146bb615833565b5b60006146ca858286016144b3565b92505060206146db858286016144b3565b9150509250929050565b6000806000606084860312156146fe576146fd615833565b5b600061470c868287016144b3565b935050602061471d868287016144b3565b925050604061472e8682870161464e565b9150509250925092565b6000806000806080858703121561475257614751615833565b5b6000614760878288016144b3565b9450506020614771878288016144b3565b93505060406147828782880161464e565b925050606085013567ffffffffffffffff8111156147a3576147a261582e565b5b6147af87828801614587565b91505092959194509250565b600080604083850312156147d2576147d1615833565b5b60006147e0858286016144b3565b92505060206147f18582860161451e565b9150509250929050565b6000806040838503121561481257614811615833565b5b6000614820858286016144b3565b92505060206148318582860161464e565b9150509250929050565b60006020828403121561485157614850615833565b5b600061485f8482850161451e565b91505092915050565b60006020828403121561487e5761487d615833565b5b600061488c84828501614533565b91505092915050565b6000602082840312156148ab576148aa615833565b5b60006148b984828501614548565b91505092915050565b6000602082840312156148d8576148d7615833565b5b60006148e68482850161455d565b91505092915050565b60006020828403121561490557614904615833565b5b600061491384828501614572565b91505092915050565b60006020828403121561493257614931615833565b5b6000614940848285016145b5565b91505092915050565b60006020828403121561495f5761495e615833565b5b600082013567ffffffffffffffff81111561497d5761497c61582e565b5b61498984828501614620565b91505092915050565b6000602082840312156149a8576149a7615833565b5b60006149b68482850161464e565b91505092915050565b6000602082840312156149d5576149d4615833565b5b60006149e384828501614663565b91505092915050565b60008060008060008060808789031215614a0957614a08615833565b5b6000614a1789828a0161464e565b965050602087013567ffffffffffffffff811115614a3857614a3761582e565b5b614a4489828a016144c8565b9550955050604087013567ffffffffffffffff811115614a6757614a6661582e565b5b614a7389828a016145ca565b93509350506060614a8689828a0161464e565b9150509295509295509295565b60008060008060608587031215614aad57614aac615833565b5b6000614abb8782880161464e565b9450506020614acc8782880161464e565b935050604085013567ffffffffffffffff811115614aed57614aec61582e565b5b614af9878288016144c8565b925092505092959194509250565b614b108161552b565b82525050565b614b27614b228261552b565b6156da565b82525050565b614b368161553d565b82525050565b614b4581615549565b82525050565b6000614b56826153c8565b614b6081856153de565b9350614b708185602086016155fb565b614b7981615838565b840191505092915050565b614b8d816155b6565b82525050565b6000614b9f838561540b565b9350614bac8385846155ec565b82840190509392505050565b6000614bc3826153d3565b614bcd81856153fa565b9350614bdd8185602086016155fb565b614be681615838565b840191505092915050565b6000614bfc826153d3565b614c06818561540b565b9350614c168185602086016155fb565b80840191505092915050565b60008154614c2f8161562e565b614c39818661540b565b94506001821660008114614c545760018114614c6557614c98565b60ff19831686528186019350614c98565b614c6e856153b3565b60005b83811015614c9057815481890152600182019150602081019050614c71565b838801955050505b50505092915050565b6000614cae6017836153fa565b9150614cb982615856565b602082019050919050565b6000614cd16026836153fa565b9150614cdc8261587f565b604082019050919050565b6000614cf4600f836153fa565b9150614cff826158ce565b602082019050919050565b6000614d17601c836153fa565b9150614d22826158f7565b602082019050919050565b6000614d3a6014836153fa565b9150614d4582615920565b602082019050919050565b6000614d5d6016836153fa565b9150614d6882615949565b602082019050919050565b6000614d806013836153fa565b9150614d8b82615972565b602082019050919050565b6000614da3600f836153fa565b9150614dae8261599b565b602082019050919050565b6000614dc66020836153fa565b9150614dd1826159c4565b602082019050919050565b6000614de96016836153fa565b9150614df4826159ed565b602082019050919050565b6000614e0c6012836153fa565b9150614e1782615a16565b602082019050919050565b6000614e2f601a836153fa565b9150614e3a82615a3f565b602082019050919050565b6000614e526000836153ef565b9150614e5d82615a68565b600082019050919050565b6000614e756017836153fa565b9150614e8082615a6b565b602082019050919050565b6000614e98601b836153fa565b9150614ea382615a94565b602082019050919050565b6000614ebb6014836153fa565b9150614ec682615abd565b602082019050919050565b6000614ede6018836153fa565b9150614ee982615ae6565b602082019050919050565b6000614f016011836153fa565b9150614f0c82615b0f565b602082019050919050565b614f20816155ac565b82525050565b6000614f328284614b16565b60148201915081905092915050565b6000614f4e828486614b93565b91508190509392505050565b6000614f668285614bf1565b9150614f728284614bf1565b91508190509392505050565b6000614f8a8285614c22565b9150614f968284614bf1565b91508190509392505050565b6000614fad82614e45565b9150819050919050565b6000602082019050614fcc6000830184614b07565b92915050565b6000606082019050614fe76000830186614b07565b614ff46020830185614b07565b6150016040830184614f17565b949350505050565b600060808201905061501e6000830187614b07565b61502b6020830186614b07565b6150386040830185614f17565b818103606083015261504a8184614b4b565b905095945050505050565b600060408201905061506a6000830185614b07565b6150776020830184614f17565b9392505050565b60006020820190506150936000830184614b2d565b92915050565b60006020820190506150ae6000830184614b3c565b92915050565b60006020820190506150c96000830184614b84565b92915050565b600060208201905081810360008301526150e98184614bb8565b905092915050565b6000602082019050818103600083015261510a81614ca1565b9050919050565b6000602082019050818103600083015261512a81614cc4565b9050919050565b6000602082019050818103600083015261514a81614ce7565b9050919050565b6000602082019050818103600083015261516a81614d0a565b9050919050565b6000602082019050818103600083015261518a81614d2d565b9050919050565b600060208201905081810360008301526151aa81614d50565b9050919050565b600060208201905081810360008301526151ca81614d73565b9050919050565b600060208201905081810360008301526151ea81614d96565b9050919050565b6000602082019050818103600083015261520a81614db9565b9050919050565b6000602082019050818103600083015261522a81614ddc565b9050919050565b6000602082019050818103600083015261524a81614dff565b9050919050565b6000602082019050818103600083015261526a81614e22565b9050919050565b6000602082019050818103600083015261528a81614e68565b9050919050565b600060208201905081810360008301526152aa81614e8b565b9050919050565b600060208201905081810360008301526152ca81614eae565b9050919050565b600060208201905081810360008301526152ea81614ed1565b9050919050565b6000602082019050818103600083015261530a81614ef4565b9050919050565b60006020820190506153266000830184614f17565b92915050565b6000615336615347565b90506153428282615660565b919050565b6000604051905090565b600067ffffffffffffffff82111561536c5761536b6157eb565b5b61537582615838565b9050602081019050919050565b600067ffffffffffffffff82111561539d5761539c6157eb565b5b6153a682615838565b9050602081019050919050565b60008190508160005260206000209050919050565b600081519050919050565b600081519050919050565b600082825260208201905092915050565b600081905092915050565b600082825260208201905092915050565b600081905092915050565b6000615421826155ac565b915061542c836155ac565b9250827fffffffffffffffffffffffffffffffffffffffffffffffffffffffffffffffff038211156154615761546061572f565b5b828201905092915050565b6000615477826155ac565b9150615482836155ac565b9250826154925761549161575e565b5b828204905092915050565b60006154a8826155ac565b91506154b3836155ac565b9250817fffffffffffffffffffffffffffffffffffffffffffffffffffffffffffffffff04831182151516156154ec576154eb61572f565b5b828202905092915050565b6000615502826155ac565b915061550d836155ac565b9250828210156155205761551f61572f565b5b828203905092915050565b60006155368261558c565b9050919050565b60008115159050919050565b6000819050919050565b60007fffffffff0000000000000000000000000000000000000000000000000000000082169050919050565b60008160000b9050919050565b600073ffffffffffffffffffffffffffffffffffffffff82169050919050565b6000819050919050565b60006155c1826155c8565b9050919050565b60006155d3826155da565b9050919050565b60006155e58261558c565b9050919050565b82818337600083830152505050565b60005b838110156156195780820151818401526020810190506155fe565b83811115615628576000848401525b50505050565b6000600282049050600182168061564657607f821691505b6020821081141561565a5761565961578d565b5b50919050565b61566982615838565b810181811067ffffffffffffffff82111715615688576156876157eb565b5b80604052505050565b600061569c826155ac565b91507fffffffffffffffffffffffffffffffffffffffffffffffffffffffffffffffff8214156156cf576156ce61572f565b5b600182019050919050565b60006156e5826156ec565b9050919050565b60006156f782615849565b9050919050565b6000615709826155ac565b9150615714836155ac565b9250826157245761572361575e565b5b828206905092915050565b7f4e487b7100000000000000000000000000000000000000000000000000000000600052601160045260246000fd5b7f4e487b7100000000000000000000000000000000000000000000000000000000600052601260045260246000fd5b7f4e487b7100000000000000000000000000000000000000000000000000000000600052602260045260246000fd5b7f4e487b7100000000000000000000000000000000000000000000000000000000600052603260045260246000fd5b7f4e487b7100000000000000000000000000000000000000000000000000000000600052604160045260246000fd5b600080fd5b600080fd5b600080fd5b600080fd5b600080fd5b600080fd5b6000601f19601f8301169050919050565b60008160601b9050919050565b7f4661696c656420746f20706179207468652062696c6c73000000000000000000600082015250565b7f4f776e61626c653a206e6577206f776e657220697320746865207a65726f206160008201527f6464726573730000000000000000000000000000000000000000000000000000602082015250565b7f4e6f7420656e6f75676820244150450000000000000000000000000000000000600082015250565b7f4578636565647320437265616d6c69737420616c6c6f636174696f6e00000000600082015250565b7f546f6b656e20646f6573206e6f74206578697374000000000000000000000000600082015250565b7f496e76616c69642070726f6f6620737570706c69656400000000000000000000600082015250565b7f436c61696d206973206e6f742061637469766500000000000000000000000000600082015250565b7f4e4f545f454e4f5547485f244150450000000000000000000000000000000000600082015250565b7f4f776e61626c653a2063616c6c6572206973206e6f7420746865206f776e6572600082015250565b7f496e76616c69642066756e64732070726f766964656400000000000000000000600082015250565b7f43616c6c657220697320636f6e74726163740000000000000000000000000000600082015250565b7f45786365656473207075626c6963206d696e7420737570706c79000000000000600082015250565b50565b7f437265616d6c697374206973206e6f7420616374697665000000000000000000600082015250565b7f4e756d2073686f756c6420626520626967676572207468616e20350000000000600082015250565b7f5075626c6963206973206e6f7420616374697665000000000000000000000000600082015250565b7f4578636565647320636c61696d20616c6c6f636174696f6e0000000000000000600082015250565b7f5a45524f2042414e4b2041444452455353000000000000000000000000000000600082015250565b615b418161552b565b8114615b4c57600080fd5b50565b615b588161553d565b8114615b6357600080fd5b50565b615b6f81615549565b8114615b7a57600080fd5b50565b615b8681615553565b8114615b9157600080fd5b50565b615b9d8161557f565b8114615ba857600080fd5b50565b615bb4816155ac565b8114615bbf57600080fd5b5056fea2646970667358221220f7d94e456ab1404953d559859c8f959f815b6a535bdc0ee46786d641e72fb3ef64736f6c63430008070033697066733a2f2f516d4e7033326465536d6e416d32374b4578445865314c687139425a6a4b59433475654d6247394e4139386a5875",
  "linkReferences": {},
  "deployedLinkReferences": {}
}